{
  "_format": "hh-sol-artifact-1",
  "contractName": "LeaseContract",
  "sourceName": "contracts/LeaseContract.sol",
  "abi": [
    {
      "inputs": [
        {
          "internalType": "address",
          "name": "_tenant",
          "type": "address"
        },
        {
          "internalType": "uint256",
          "name": "_rentAmount",
          "type": "uint256"
        },
        {
          "internalType": "uint256",
          "name": "_deposit",
          "type": "uint256"
        }
      ],
      "stateMutability": "nonpayable",
      "type": "constructor"
    },
    {
      "inputs": [],
      "name": "deposit",
      "outputs": [
        {
          "internalType": "uint256",
          "name": "",
          "type": "uint256"
        }
      ],
      "stateMutability": "view",
      "type": "function"
    },
    {
      "inputs": [],
      "name": "isSigned",
      "outputs": [
        {
          "internalType": "bool",
          "name": "",
          "type": "bool"
        }
      ],
      "stateMutability": "view",
      "type": "function"
    },
    {
      "inputs": [],
      "name": "landlord",
      "outputs": [
        {
          "internalType": "address",
          "name": "",
          "type": "address"
        }
      ],
      "stateMutability": "view",
      "type": "function"
    },
    {
      "inputs": [],
      "name": "rentAmount",
      "outputs": [
        {
          "internalType": "uint256",
          "name": "",
          "type": "uint256"
        }
      ],
      "stateMutability": "view",
      "type": "function"
    },
    {
      "inputs": [],
      "name": "signLease",
      "outputs": [],
      "stateMutability": "payable",
      "type": "function"
    },
    {
      "inputs": [],
      "name": "tenant",
      "outputs": [
        {
          "internalType": "address",
          "name": "",
          "type": "address"
        }
      ],
      "stateMutability": "view",
      "type": "function"
    },
    {
      "inputs": [],
      "name": "withdraw",
      "outputs": [],
      "stateMutability": "nonpayable",
      "type": "function"
    }
  ],
  "bytecode": "0x608060405234801561001057600080fd5b506040516109193803806109198339818101604052810190610032919061017d565b336000806101000a81548173ffffffffffffffffffffffffffffffffffffffff021916908373ffffffffffffffffffffffffffffffffffffffff16021790555082600160006101000a81548173ffffffffffffffffffffffffffffffffffffffff021916908373ffffffffffffffffffffffffffffffffffffffff16021790555081600281905550806003819055506000600460006101000a81548160ff0219169083151502179055505050506101d0565b600080fd5b600073ffffffffffffffffffffffffffffffffffffffff82169050919050565b6000610114826100e9565b9050919050565b61012481610109565b811461012f57600080fd5b50565b6000815190506101418161011b565b92915050565b6000819050919050565b61015a81610147565b811461016557600080fd5b50565b60008151905061017781610151565b92915050565b600080600060608486031215610196576101956100e4565b5b60006101a486828701610132565b93505060206101b586828701610168565b92505060406101c686828701610168565b9150509250925092565b61073a806101df6000396000f3fe6080604052600436106100705760003560e01c8063d0e30db01161004e578063d0e30db0146100c1578063dc1997ea146100ec578063e66a6b2214610117578063f8ef1e131461014257610070565b80633ccfd60b14610075578063adf077911461008c578063ceabe35d146100b7575b600080fd5b34801561008157600080fd5b5061008a61016d565b005b34801561009857600080fd5b506100a16102b3565b6040516100ae919061045b565b60405180910390f35b6100bf6102d9565b005b3480156100cd57600080fd5b506100d66103d7565b6040516100e3919061048f565b60405180910390f35b3480156100f857600080fd5b506101016103dd565b60405161010e919061045b565b60405180910390f35b34801561012357600080fd5b5061012c610401565b60405161013991906104c5565b60405180910390f35b34801561014e57600080fd5b50610157610414565b604051610164919061048f565b60405180910390f35b60008054906101000a900473ffffffffffffffffffffffffffffffffffffffff1673ffffffffffffffffffffffffffffffffffffffff163373ffffffffffffffffffffffffffffffffffffffff16146101fb576040517f08c379a00000000000000000000000000000000000000000000000000000000081526004016101f29061053d565b60405180910390fd5b600460009054906101000a900460ff1661024a576040517f08c379a0000000000000000000000000000000000000000000000000000000008152600401610241906105a9565b60405180910390fd5b60008054906101000a900473ffffffffffffffffffffffffffffffffffffffff1673ffffffffffffffffffffffffffffffffffffffff166108fc479081150290604051600060405180830381858888f193505050501580156102b0573d6000803e3d6000fd5b50565b600160009054906101000a900473ffffffffffffffffffffffffffffffffffffffff1681565b600160009054906101000a900473ffffffffffffffffffffffffffffffffffffffff1673ffffffffffffffffffffffffffffffffffffffff163373ffffffffffffffffffffffffffffffffffffffff1614610369576040517f08c379a000000000000000000000000000000000000000000000000000000000815260040161036090610615565b60405180910390fd5b6003546002546103799190610664565b34146103ba576040517f08c379a00000000000000000000000000000000000000000000000000000000081526004016103b1906106e4565b60405180910390fd5b6001600460006101000a81548160ff021916908315150217905550565b60035481565b60008054906101000a900473ffffffffffffffffffffffffffffffffffffffff1681565b600460009054906101000a900460ff1681565b60025481565b600073ffffffffffffffffffffffffffffffffffffffff82169050919050565b60006104458261041a565b9050919050565b6104558161043a565b82525050565b6000602082019050610470600083018461044c565b92915050565b6000819050919050565b61048981610476565b82525050565b60006020820190506104a46000830184610480565b92915050565b60008115159050919050565b6104bf816104aa565b82525050565b60006020820190506104da60008301846104b6565b92915050565b600082825260208201905092915050565b7f4f6e6c79206c616e646c6f72642063616e207769746864726177000000000000600082015250565b6000610527601a836104e0565b9150610532826104f1565b602082019050919050565b600060208201905081810360008301526105568161051a565b9050919050565b7f4c65617365206e6f74207369676e656400000000000000000000000000000000600082015250565b60006105936010836104e0565b915061059e8261055d565b602082019050919050565b600060208201905081810360008301526105c281610586565b9050919050565b7f4f6e6c792074656e616e742063616e207369676e000000000000000000000000600082015250565b60006105ff6014836104e0565b915061060a826105c9565b602082019050919050565b6000602082019050818103600083015261062e816105f2565b9050919050565b7f4e487b7100000000000000000000000000000000000000000000000000000000600052601160045260246000fd5b600061066f82610476565b915061067a83610476565b925082820190508082111561069257610691610635565b5b92915050565b7f496e636f7272656374207061796d656e74000000000000000000000000000000600082015250565b60006106ce6011836104e0565b91506106d982610698565b602082019050919050565b600060208201905081810360008301526106fd816106c1565b905091905056fea2646970667358221220e87a52692494fe2a959cff39ca51da55712d84c1b80e08184f1bba43edde488964736f6c63430008140033",
  "linkReferences": {},
  "deployedLinkReferences": {}
}